:020000040800F2
:1000000000C000204DA60008DD680008DF68000879
:10001000E1680008E3680008E568000800000000E7
:10002000000000000000000000000000E768000879
:10003000E968000800000000EB680008ED680008AF
:1000400095A6000895A6000895A6000895A60008A4
:1000500095A6000895A60008F9680008056900083B
:10006000116900082569000831690008494C000839
:1000700095A6000895A6000895A6000895A6000874
:1000800095A6000895A6000895A6000895A6000864
:1000900095A6000895A6000895A600083D690008E9
:1000A00095A6000895A6000895A6000895A6000844
:1000B00095A60008216100084966000895A6000879
:1000C00095A6000895A6000895A6000895A6000824
:1000D00095A6000895A600085D6A00086D6A0008EC
:1000E000C169000895A6000895A6000895A6000815
:1000F00095A6000895A6000895A6000895A60008F4
:1001000095A6000895A6000895A6000895A60008E3
:1001100095A6000895A6000895A6000895A60008D3
:1001200095A6000895A6000895A6000895A60008C3
:1001300000000000000000000000000000000000BF
:1001400000000000000000000000000000000000AF
:10015000000000000000000000000000000000009F
:10016000000000000000000000000000000000008F
:10017000000000000000000000000000000000007F
:10018000000000000000000000000000000000006F
:10019000000000000000000000000000000000005F
:1001A000000000000000000000000000000000004F
:1001B000000000000000000000000000000000003F
:1001C000000000000000000000000000000000002F
:1001D000000000000000000000000000000000001F
:0401E0005FF8E0F1F3
:1001E80010B5054C237833B9044B13B10448AFF369
:1001F80000800123237010BD80060020000000004D
:10020800B8CD000808B5034B1BB103490348AFF349
:10021800008008BD0000000084060020B8CD00085A
:10022800034613F8012B002AFBD1181A013870472E
:1002380081F0004102E000BF83F0004330B54FEA8F
:1002480041044FEA430594EA050F08BF90EA020FFC
:100258001FBF54EA000C55EA020C7FEA645C7FEA8F
:10026800655C00F0E2804FEA5454D4EB5555B8BFB2
:100278006D420CDD2C4480EA020281EA030382EA23
:10028800000083EA010180EA020281EA0303362DB5
:1002980088BF30BD11F0004F4FEA01314FF4801C88
:1002A8004CEA113102D0404261EB410113F0004F9A
:1002B8004FEA03334CEA133302D0524263EB430351
:1002C80094EA050F00F0A780A4F10104D5F1200EEF
:1002D8000DDB02FA0EFC22FA05F2801841F100014A
:1002E80003FA0EF2801843FA05F359410EE0A5F11E
:1002F80020050EF1200E012A03FA0EFC28BF4CF04F
:10030800020C43FA05F3C01851EBE37101F0004504
:1003180007D54FF0000EDCF1000C7EEB00006EEB11
:100328000101B1F5801F1BD3B1F5001F0CD349089B
:100338005FEA30004FEA3C0C04F101044FEA4452F2
:1003480012F5800F80F09A80BCF1004F08BF5FEA79
:10035800500C50F1000041EB045141EA050130BD59
:100368005FEA4C0C404141EB010111F4801FA4F1FC
:100378000104E9D191F0000F04BF01460020B1FA51
:1003880081F308BF2033A3F10B03B3F120020CDA89
:100398000C3208DD02F1140CC2F10C0201FA0CF067
:1003A80021FA02F10CE002F11402D8BFC2F1200CCC
:1003B80001FA02F120FA0CFCDCBF41EA0C01904082
:1003C800E41AA2BF01EB0451294330BD6FEA0404CB
:1003D8001F3C1CDA0C340EDC04F11404C4F12002B6
:1003E80020FA04F001FA02F340EA030021FA04F3C8
:1003F80045EA030130BDC4F10C04C4F1200220FA1F
:1004080002F001FA04F340EA0300294630BD21FA5C
:1004180004F0294630BD94F0000F83F4801306BF22
:1004280081F480110134013D4EE77FEA645C18BF16
:100438007FEA655C29D094EA050F08BF90EA020FAD
:1004480005D054EA000C04BF1946104630BD91EAA5
:10045800030F1EBF0021002030BD5FEA545C05D1A8
:100468004000494128BF41F0004130BD14F58004E7
:100478003CBF01F5801130BD01F0004545F0FE415B
:1004880041F470014FF0000030BD7FEA645C1ABF90
:10049800194610467FEA655C1CBF0B46024650EAC7
:1004A800013406BF52EA033591EA030F41F40021F3
:1004B80030BD00BF90F0000F04BF0021704730B579
:1004C8004FF4806404F132044FF000054FF000014E
:1004D80050E700BF90F0000F04BF0021704730B50F
:1004E8004FF4806404F1320410F0004548BF4042E4
:1004F8004FF000013EE700BF42004FEAE2014FEA39
:1005080031014FEA02701FBF12F07F4393F07F4F13
:1005180081F06051704732F07F4208BF704793F016
:100528007F4F04BF41F40021704730B54FF4607429
:1005380001F0004521F000411CE700BF50EA01022C
:1005480008BF704730B54FF000050AE050EA0102D5
:1005580008BF704730B511F0004502D5404261EB45
:1005680041014FF4806404F132045FEA915C3FF486
:10057800D8AE4FF003025FEADC0C18BF03325FEA23
:10058800DC0C18BF033202EBDC02C2F1200300FAD4
:1005980003FC20FA02F001FA03FE40EA0E0021FAF9
:1005A80002F11444BDE600BF70B54FF0FF0C4CF4E7
:1005B800E06C1CEA11541DBF1CEA135594EA0C0F99
:1005C80095EA0C0F00F0DEF82C4481EA030621EAD4
:1005D8004C5123EA4C5350EA013518BF52EA03350F
:1005E80041F4801143F4801338D0A0FB02CE4FF0C1
:1005F8000005E1FB02E506F00042E0FB03E54FF0F1
:100608000006E1FB03569CF0000F18BF4EF0010EE8
:10061800A4F1FF04B6F5007F64F5407404D25FEAE4
:100628004E0E6D4146EB060642EAC62141EA555197
:100638004FEAC52040EA5E504FEACE2EB4F1FD0CD9
:1006480088BFBCF5E06F1ED8BEF1004F08BF5FEA57
:10065800500E50F1000041EB045170BD06F0004609
:1006680046EA010140EA020081EA0301B4EB5C04B6
:10067800C2BFD4EB0C0541EA045170BD41F48011AE
:100688004FF0000E013C00F3AB8014F1360FDEBFD3
:10069800002001F0004170BDC4F10004203C35DAAF
:1006A8000C341BDC04F11404C4F1200500FA05F332
:1006B80020FA04F001FA05F240EA020001F00042D3
:1006C80021F0004110EBD37021FA04F642EB060149
:1006D8005EEA430E08BF20EAD37070BDC4F10C0473
:1006E800C4F1200500FA04F320FA05F001FA04F237
:1006F80040EA020001F0004110EBD37041F1000123
:100708005EEA430E08BF20EAD37070BDC4F120052D
:1007180000FA05F24EEA020E20FA04F301FA05F295
:1007280043EA020321FA04F001F0004121FA04F23D
:1007380020EA020000EBD3705EEA430E08BF20EA0D
:10074800D37070BD94F0000F0FD101F00046400047
:1007580041EB010111F4801F08BF013CF7D041EAC9
:10076800060195F0000F18BF704703F000465200CD
:1007780043EB030313F4801F08BF013DF7D043EA9E
:100788000603704794EA0C0F0CEA135518BF95EA54
:100798000C0F0CD050EA410618BF52EA4306D1D1DB
:1007A80081EA030101F000414FF0000070BD50EAFA
:1007B800410606BF1046194652EA430619D094EA84
:1007C8000C0F02D150EA013613D195EA0C0F05D16E
:1007D80052EA03361CBF104619460AD181EA0301C2
:1007E80001F0004141F0FE4141F470014FF000007A
:1007F80070BD41F0FE4141F4780170BD70B54FF015
:10080800FF0C4CF4E06C1CEA11541DBF1CEA135594
:1008180094EA0C0F95EA0C0F00F0A7F8A4EB050476
:1008280081EA030E52EA03354FEA013100F088806D
:100838004FEA03334FF0805545EA131343EA126336
:100848004FEA022245EA111545EA10654FEA0026EB
:100858000EF000419D4208BF964244F1FD0404F5A4
:10086800407402D25B084FEA3202B61A65EB030500
:100878005B084FEA32024FF480104FF4002CB6EBBD
:10088800020E75EB030E22BFB61A754640EA0C003D
:100898005B084FEA3202B6EB020E75EB030E22BF7D
:1008A800B61A754640EA5C005B084FEA3202B6EBBE
:1008B800020E75EB030E22BFB61A754640EA9C007D
:1008C8005B084FEA3202B6EB020E75EB030E22BF4D
:1008D800B61A754640EADC0055EA060E18D04FEA0B
:1008E800051545EA16754FEA06164FEAC30343EAAB
:1008F80052734FEAC2025FEA1C1CC0D111F4801F78
:100908000BD141EA00014FF000004FF0004CB6E770
:1009180011F4801F04BF01430020B4F1FD0C88BF0F
:10092800BCF5E06F3FF6AFAEB5EB030C04BFB6EB1A
:10093800020C5FEA500C50F1000041EB045170BD0D
:100948000EF0004E4EEA113114EB5C04C2BFD4EB3A
:100958000C0541EA045170BD41F480114FF0000EBE
:10096800013C90E645EA060E8DE60CEA135594EA3A
:100978000C0F08BF95EA0C0F3FF43BAF94EA0C0F3D
:100988000AD150EA01347FF434AF95EA0C0F7FF4B2
:1009980025AF104619462CE795EA0C0F06D152EA06
:1009A80003353FF4FDAE1046194622E750EA4106EA
:1009B80018BF52EA43067FF4C5AE50EA41047FF4FB
:1009C8000DAF52EA43057FF4EBAE12E74FF0FF3C60
:1009D80006E000BF4FF0010C02E000BF4FF0010C31
:1009E8004DF804CD4FEA410C7FEA6C5C4FEA430CAA
:1009F80018BF7FEA6C5C1BD001B050EA410C0CBFF9
:100A080052EA430C91EA030F02BF90EA020F00205A
:100A1800704710F1000F91EA030F58BF994208BFC1
:100A280090422CBFD8176FEAE37040F0010070477E
:100A38004FEA410C7FEA6C5C02D150EA013C07D1D5
:100A48004FEA430C7FEA6C5CD6D152EA033CD3D020
:100A58005DF8040B704700BF8446104662468C461A
:100A68001946634600E000BF01B5FFF7B7FF00284D
:100A780048BF10F1000F01BD4DF808EDFFF7F4FF76
:100A88000CBF012000205DF808FB00BF4DF808ED01
:100A9800FFF7EAFF34BF012000205DF808FB00BF24
:100AA8004DF808EDFFF7E0FF94BF012000205DF846
:100AB80008FB00BF4DF808EDFFF7CEFF94BF0120FB
:100AC80000205DF808FB00BF4DF808EDFFF7C4FFF4
:100AD80034BF012000205DF808FB00BF4FEA410247
:100AE80012F5001215D211D56FF47873B3EB625278
:100AF80012D94FEAC12343F0004343EA505311F09F
:100B0800004F23FA02F018BF404270474FF0000030
:100B1800704750EA013005D111F0004008BF6FF06E
:100B2800004070474FF00000704700BF4FEA410295
:100B3800B2F1E04324BFB3F5001CDCF1FE5C0DD933
:100B480001F0004C4FEAC0024CEA5070B2F1004F7D
:100B580040EB830008BF20F00100704711F0804F80
:100B680021D113F13872BCBF01F00040704741F445
:100B780080114FEA5252C2F11802C2F1200C10FA49
:100B88000CF320FA02F018BF40F001004FEAC1232D
:100B98004FEAD32303FA0CFC40EA0C0023FA02F3D1
:100BA8004FEA4303CCE77FEA625307D150EA0133A7
:100BB8001EBF4FF0FE4040F44000704701F0004077
:100BC80040F0FE4040F40000704700BF80F0004055
:100BD80002E000BF81F0004142001FBF5FEA41030D
:100BE80092EA030F7FEA226C7FEA236C6AD04FEA0D
:100BF8001262D2EB1363C1BFD21841404840414052
:100C0800B8BF5B42192B88BF704710F0004F40F403
:100C1800000020F07F4018BF404211F0004F41F41F
:100C2800000121F07F4118BF494292EA030F3FD0EB
:100C3800A2F1010241FA03FC10EB0C00C3F12003FE
:100C480001FA03F100F0004302D5494260EB40008D
:100C5800B0F5000F13D3B0F1807F06D340084FEAF8
:100C6800310102F10102FE2A51D2B1F1004F40EBED
:100C7800C25008BF20F0010040EA03007047490055
:100C880040EB000010F4000FA2F10102EDD1B0FA20
:100C980080FCACF1080CB2EB0C0200FA0CF0AABF15
:100CA80000EBC25052421843BCBFD04018437047B3
:100CB80092F0000F81F4000106BF80F400000132B9
:100CC800013BB5E74FEA41037FEA226C18BF7FEA90
:100CD800236C21D092EA030F04D092F0000F08BFD2
:100CE8000846704790EA010F1CBF0020704712F0B9
:100CF8007F4F04D1400028BF40F00040704712F1F8
:100D080000723CBF00F50000704700F0004343F05C
:100D1800FE4040F4000070477FEA226216BF084692
:100D28007FEA23630146420206BF5FEA412390EA55
:100D3800010F40F4800070474FF0000304E000BF4B
:100D480010F0004348BF40425FEA000C08BF7047FC
:100D580043F0964301464FF000001CE050EA0102C0
:100D680008BF70474FF000030AE000BF50EA0102D5
:100D780008BF704711F0004302D5404261EB4101C2
:100D88005FEA010C02BF84460146002043F0B643E7
:100D980008BFA3F18053A3F50003BCFA8CF2083A0C
:100DA800A3EBC25310DB01FA02FC634400FA02FC15
:100DB800C2F12002BCF1004F20FA02F243EB02001C
:100DC80008BF20F00100704702F1200201FA02FC7E
:100DD800C2F1200250EA4C0021FA02F243EB020071
:100DE80008BF20EADC7070474FF0FF0C1CEAD052B5
:100DF8001EBF1CEAD15392EA0C0F93EA0C0F6FD076
:100E08001A4480EA010C400218BF5FEA41211ED053
:100E18004FF0006343EA501043EA5111A0FB01313F
:100E28000CF00040B1F5000F3EBF490041EAD37114
:100E38005B0040EA010062F17F02FD2A1DD8B3F190
:100E4800004F40EBC25008BF20F00100704790F0FF
:100E5800000F0CF0004C08BF49024CEA502040EA51
:100E680051207F3AC2BFD2F1FF0340EAC250704717
:100E780040F400004FF00003013A5DDC12F1190F55
:100E8800DCBF00F000407047C2F10002410021FAC7
:100E980002F1C2F1200200FA02FC5FEA310040F1DF
:100EA800000053EA4C0308BF20EADC70704792F058
:100EB800000F00F0004C02BF400010F4000F013A90
:100EC800F9D040EA0C0093F0000F01F0004C02BF8B
:100ED800490011F4000F013BF9D041EA0C018FE7FA
:100EE8000CEAD15392EA0C0F18BF93EA0C0F0AD000
:100EF80030F0004C18BF31F0004CD8D180EA010026
:100F080000F00040704790F0000F17BF90F0004FBE
:100F1800084691F0000F91F0004F14D092EA0C0FA0
:100F280001D142020FD193EA0C0F03D14B0218BF33
:100F3800084608D180EA010000F0004040F0FE4079
:100F480040F40000704740F0FE4040F44000704715
:100F58004FF0FF0C1CEAD0521EBF1CEAD15392EA94
:100F68000C0F93EA0C0F69D0A2EB030280EA010C84
:100F780049024FEA402037D04FF0805343EA11111D
:100F880043EA10130CF000408B4238BF5B0042F17B
:100F98007D024FF4000C8B4224BF5B1A40EA0C0020
:100FA800B3EB510F24BFA3EB510340EA5C00B3EB52
:100FB800910F24BFA3EB910340EA9C00B3EBD10F40
:100FC80024BFA3EBD10340EADC001B0118BF5FEA92
:100FD8001C1CE0D1FD2A3FF650AF8B4240EBC250BB
:100FE80008BF20F0010070470CF0004C4CEA50207C
:100FF8007F32C2BFD2F1FF0340EAC250704740F4CB
:1010080000004FF00003013A37E792F0000F00F0BC
:10101800004C02BF400010F4000F013AF9D040EA3A
:101028000C0093F0000F01F0004C02BF490011F4CE
:10103800000F013BF9D041EA0C0195E70CEAD153C6
:1010480092EA0C0F08D142027FF47DAF93EA0C0FAD
:101058007FF470AF084676E793EA0C0F04D14B0291
:101068003FF44CAF08466EE730F0004C18BF31F043
:10107800004CCAD130F000427FF45CAF31F000433D
:101088007FF43CAF5FE700BF4FF0FF3C06E000BFD6
:101098004FF0010C02E000BF4FF0010C4DF804CDF9
:1010A8004FEA40024FEA41037FEA226C18BF7FEA09
:1010B800236C11D001B052EA530C18BF90EA010F0B
:1010C80058BFB2EB030088BFC81738BF6FEAE1709A
:1010D80018BF40F0010070477FEA226C02D15FEA36
:1010E800402C05D17FEA236CE4D15FEA412CE1D0A2
:1010F8005DF8040B704700BF844608466146FFE769
:101108000FB5FFF7C9FF002848BF10F1000F0FBD4A
:101118004DF808EDFFF7F4FF0CBF012000205DF843
:1011280008FB00BF4DF808EDFFF7EAFF34BF0120C8
:1011380000205DF808FB00BF4DF808EDFFF7E0FF61
:1011480094BF012000205DF808FB00BF4DF808EDB2
:10115800FFF7D2FF94BF012000205DF808FB00BF15
:101168004DF808EDFFF7C8FF34BF012000205DF8F7
:1011780008FB00BF4FEA4002B2F1FE4F0FD34FF019
:101188009E03B3EB12620DD94FEA002343F00043EC
:1011980010F0004F23FA02F018BF404270474FF09A
:1011A8000000704712F1610F01D1420205D110F021
:1011B800004008BF6FF0004070474FF000007047D4
:1011C80053B94AB9002908BF00281CBF4FF0FF31A6
:1011D8004FF0FF3000F074B9ADF1080C6DE904CEA2
:1011E80000F006F8DDF804E0DDE9022304B07047FA
:1011F8002DE9F0478C460446089E002B4BD18A42C5
:10120800154667D9B2FA82F24AB1C2F1200701FA4B
:1012180002F320FA07F7954047EA030C94404FEA97
:10122800154EBCFBFEF71FFA85F80EFB17C307FB2C
:1012380008F9210C41EA0343994509D9EB1807F14C
:10124800FF3180F01C81994540F21981023F2B44FF
:10125800A3EB0903B3FBFEF00EFB103300FB08F110
:10126800A4B244EA0344A14209D92C1900F1FF337E
:1012780080F00781A14240F2048102382C4440EA00
:1012880007400027641A1EB10023D440C6E9004372
:101298003946BDE8F0878B4209D9002E00F0EC8072
:1012A8000027C6E9000138463946BDE8F087B3FA99
:1012B80083F7002F48D18B4202D3824200F2FB8091
:1012C800841A61EB030301209C46002EE0D0C6E996
:1012D800004CDDE702B9FFDEB2FA82F2002A40F0E4
:1012E8008F800127491B4FEA15481FFA85F9B1FB82
:1012F800F8FE08FB1E1109FB0EF04FEA144C4CEAED
:101308000143984207D9EB180EF1FF3102D29842F7
:1013180000F2CD808E461B1AB3FBF8F008FB1033A1
:1013280009FB00F9A4B244EA0344A14507D92C19E2
:1013380000F1FF3302D2A14500F2B6801846A4EBB3
:10134800090440EA0E409EE7C7F12005BB4022FA97
:1013580005FC4CEA030C21FA05F44FEA1C4EB4FBD9
:10136800FEF91FFA8CF80EFB194420FA05F3B94070
:1013780009FB08FA19430B0C43EA0444A24502FA94
:1013880007F200FA07F30BD91CEB040409F1FF304C
:1013980080F08880A24540F28580A9F10209644462
:1013A800A4EB0A04B4FBFEF00EFB104400FB08FAA1
:1013B80089B241EA0444A24508D91CEB040400F1AF
:1013C800FF316BD2A24569D90238644440EA09402A
:1013D800A0FB0289A4EB0A044C454146CE4654D3EF
:1013E80051D0002E69D05A1A64EB0E0404FA05F5A0
:1013F80022FA07F3FC401D43C6E90054002747E7DB
:101408009540C2F1200321FA03F04FEA1548B0FBDA
:10141800F8F71FFA85F908FB170024FA03F391403F
:1014280007FB09FC0B43190C41EA00418C4504FAFF
:1014380002F407D9691807F1FF3031D28C452FD94A
:10144800023F2944A1EB0C01B1FBF8F008FB101C8A
:1014580000FB09FE99B241EA0C418E4507D969188B
:1014680000F1FF3318D28E4516D902382944A1EB72
:101478000E0140EA07473AE73746304608E70F4685
:10148800E6E61846FBE64345ABD2B8EB020169EB4A
:101498000C0201389646A4E71846E8E7084695E79F
:1014A8000746CFE781467BE702382C4447E7AEF191
:1014B800020E2B442FE7384607E73746E8E600BF19
:1014C800704700BF044B0022DA61044A136943F0F5
:1014D8000103136101807047B0170020002002400B
:1014E8001A4BDB6813F0100F27D0194AD36943F061
:1014F8000203D3611023154AD26812F0040F06D0F4
:101508001349CA6942F00102CA6143F004030F4A51
:10151800D26912F0010F09D00D49CA6942F00402DC
:10152800CA610A49CA6922F00102CA6140F201127D
:10153800934204D0054AD36070470023DBE7034A8F
:10154800D36923F00103D361704700BF0020024034
:10155800B0170020074B1B6913F0800F07D0054B0D
:10156800054A5A6002F188325A600020704701200B
:10157800704700BF0020024023016745034A1369F2
:1015880043F0800313610020704700BF0020024031
:1015980038B5044601F094F90546174BDB6813F09B
:1015A800010F0AD0B4F1FF3FF7D00CB301F088F96E
:1015B800401BA042F1D9032019E00F4BDB6813F060
:1015C800200F02D00C4B2022DA600B4BDB6813F0A3
:1015D800100F09D1084BDB6913F0010F04D1064B3A
:1015E800DB6813F0040F05D0FFF77AFF012038BD40
:1015F8000320FCE70020FAE7002002402DE9F84329
:10160800234C247E012C41D01E4690460F460446AA
:101618001F4B01221A764CF25030FFF7B9FF0346F0
:1016280070BB012C29D0022C24D04FF004090024CF
:101638004C4525D22101C1F12002A1F1200328FA4D
:1016480001F106FA02F2114326FA03F3194389B2AB
:1016580007EB4400FFF736FF4CF25030FFF798FFD6
:101668000C4B1D6925F001051D61034640B9013485
:10167800E4B2DDE74FF00209D9E74FF00109D6E7F8
:10168800034A002111761846BDE8F8830223FAE7D9
:10169800B01700200020024082B0084B1B68084A9F
:1016A800A2FB03235B0A00FB03F0019000BF019B30
:1016B8005A1E0192002BF9D102B070470000002099
:1016C800D34D621070B582B00446036813F0010F61
:1016D8002CD0AB4B5B6803F00C03042B1DD0A84B3C
:1016E8005B6803F00C03082B12D06368B3F5803FE6
:1016F80041D0002B55D103F1804303F504331A6818
:1017080022F480321A601A6822F480221A6037E0C4
:101718009B4B5B6813F4803FE7D0994B1B6813F42D
:10172800003F03D06368002B00F0AE81236813F0FC
:10173800020F76D0924B5B6813F00C0F5FD0904B82
:101748005B6803F00C03082B54D02369002B00F0CE
:101758008A808C4B01221A6001F0B2F80546884B4A
:101768001B6813F0020F75D101F0AAF8401B02287C
:10177800F5D903208BE1824A136843F48033136060
:10178800636843B301F09CF805467D4B1B6813F46E
:10179800003FCBD101F094F8401B6428F5D9032011
:1017A80075E1B3F5A02F09D0754B1A6822F4803281
:1017B8001A601A6822F480221A60E1E703F1804374
:1017C800A3F53C331A6842F480221A601A6842F47E
:1017D80080321A60D4E701F073F80546684B1B683D
:1017E80013F4003FA2D001F06BF8401B6428F5D930
:1017F80003204CE1624B5B6813F4803FA5D1604B3A
:101808001B6813F0020F04D02369012B01D00120BB
:101818003DE15B4A136823F0F803616943EAC103B9
:101828001360236813F0080F32D0A369002B5BD034
:10183800554B01221A6001F043F80546504B5B6A8C
:1018480013F0020F21D101F03BF8401B0228F5D913
:1018580003201CE14A4A136823F0F803616943EA4C
:10186800C1031360DDE7474B00221A6001F028F836
:101878000546434B1B6813F0020FD2D001F020F845
:10188800401B0228F5D9032001E10120FFF704FFDE
:10189800236813F0040F00F09780394BDB6913F0CD
:1018A800805F33D1364BDA6942F08052DA61DB6906
:1018B80003F080530193019B0125344B1B6813F4FB
:1018C800807F25D0E368012B36D0002B4CD103F163
:1018D800804303F504331A6A22F001021A621A6A75
:1018E80022F004021A622CE0274B00221A6000F052
:1018F800E7FF0546224B5B6A13F0020FC8D000F0E1
:10190800DFFF401B0228F5D90320C0E00025D4E7FB
:101918001E4A136843F48073136000F0D1FF064633
:101928001A4B1B6813F4807FCCD100F0C9FF801BD1
:101938006428F5D90320AAE0114A136A43F0010389
:101948001362E36873B300F0BBFF06460C4B1B6AD7
:1019580013F0020F37D100F0B3FF801B41F2883338
:101968009842F3D9032092E0052B11D0044B1A6A50
:1019780022F001021A621A6A22F004021A62E0E7EF
:1019880000100240000042428004424200700040C1
:10199800414B1A6A42F004021A621A6A42F00102C2
:1019A8001A62CEE700F08CFF06463B4B1B6A13F029
:1019B800020F08D000F084FF801B41F28833984260
:1019C800F3D9032063E0E5B9E369002B5ED0324A1E
:1019D800526802F00C02082A5BD0022B17D02F4B5A
:1019E80000221A6000F06CFF04462B4B1B6813F0B2
:1019F800007F47D000F064FF001B0228F5D90320C0
:101A080045E0254AD36923F08053D361DCE7234BB3
:101A180000221A6000F054FF05461F4B1B6813F0A4
:101A2800007F06D000F04CFF401B0228F5D90320A8
:101A38002DE0236AB3F5803F1AD017494B6823F489
:101A48007413226A606A024313434B60134B0122EA
:101A58001A6000F035FF04460F4B1B6813F0007F37
:101A68000ED100F02DFF001B0228F5D903200EE04F
:101A7800094A536823F40033A1680B435360DCE739
:101A8800002004E0002002E0012000E0002002B075
:101A980070BD0120FBE700BF001002406000424219
:101AA80010B487B0164C94E80F000DF1180C0CE92F
:101AB8000F00238AADF80430124B5B6803F00C0268
:101AC800082A1AD1C3F38342624412F8100C13F4A3
:101AD800803F05D10C4B03FB00F007B010BC7047EA
:101AE800084B5B68C3F34043634413F8142C074B5B
:101AF800B3FBF2F300FB03F0EFE70448EDE700BFA8
:101B0800D0CD00080010024000093D0000127A0004
:101B1800594B1B6803F007038B420CD2564A1368D3
:101B280023F007030B431360136803F007038B428A
:101B380001D00120704770B5036813F0020F06D07A
:101B48004E4A536823F0F0038468234353600C46DD
:101B58000546036813F0010F52D04368012B23D0C8
:101B6800022B28D0454A126812F0020F00F082803A
:101B780042494A6822F0030213434B6000F0A0FE7A
:101B880006466B68012B1DD0022B2AD03B4B5B68A5
:101B980013F00C0F34D000F093FE801B41F2883311
:101BA8009842F3D9032064E0344A126812F4003FE3
:101BB800DED101205DE0314A126812F0007FD7D1F2
:101BC800012056E02D4B5B6803F00C03042B17D063
:101BD80000F076FE801B41F288339842F2D9032048
:101BE80047E0264B5B6803F00C03082B08D000F095
:101BF80067FE801B41F288339842F2D9032038E00F
:101C08001D4B1B6803F00703A3420CD91A4A13683B
:101C180023F0070323431360136803F00703A34269
:101C280001D0012025E02B6813F0040F06D0134AD9
:101C3800536823F4E063E9680B4353602B6813F09F
:101C4800080F07D00D4A536823F46053296943EA03
:101C5800C1035360FFF724FF084B5B68C3F303130A
:101C6800074AD35CD840074B1860002000F0F8FD05
:101C7800002070BD0120FCE7002002400010024057
:101C880000CE000800000020014B1868704700BF14
:101C98000000002008B5FFF7F7FF044B5B68C3F3AB
:101CA8000223034AD35CD84008BD00BF001002409D
:101CB80010CE000808B5FFF7E7FF044B5B68C3F3D5
:101CC800C223034AD35CD84008BD00BF00100240BD
:101CD80010CE000830B4036A23F001030362056ADA
:101CE8004268846924F073040B681C4325F00205DC
:101CF8008B682B43104DA84203D005F50065A84218
:101D080005D123F00803CD682B4323F004030A4DC3
:101D1800A84203D005F50065A84205D122F4407217
:101D28004D6915438A692A43426084614A6842635F
:101D3800036230BC704700BF002C014030B4036A16
:101D480023F480730362036A4268C46924F073044D
:101D58000D682C4323F400738D6843EA0523124D64
:101D6800A84203D005F50065A84206D123F4006314
:101D7800CD6843EA052323F480630B4DA84203D0C2
:101D880005F50065A84207D122F440524D6942EAA0
:101D980005128D6942EA05124260C4614A68C2634D
:101DA800036230BC704700BF002C014030B4036AA6
:101DB80023F480530362036A4468C26922F4E6424A
:101DC8000D6842EA052223F400538D6843EA05337F
:101DD800094DA84203D005F50065A84204D124F4B2
:101DE80080444D6944EA85144460C2614A680264CB
:101DF800036230BC704700BF002C014010B4036A76
:101E0800046A24F001040462846924F0F00444EABA
:101E1800021223F00A030B438261036210BC70476D
:101E280010B4036A23F0100303628469036A24F47C
:101E3800704444EA023223F0A00343EA01138261AA
:101E4800036210BC704710B4846824F47F4442EAEB
:101E580003230B432343836010BC704710B5046809
:101E6800A26822F070024B68134323F007030A6844
:101E78001343A3604B68502B1ED00AD9602B21D086
:101E8800702B05D10B698A68C9680068FFF7DBFF0A
:101E980010BD402BFCD103681C6A1A6A22F00102AB
:101EA8001A620268936923F0F003096943EA01138F
:101EB800936103681C62EBE70A6989680068FFF7A9
:101EC8009DFFE5E70A6989680068FFF7A9FFDFE772
:101ED8007047022380F83D300268136843F001031D
:101EE8001360012380F83D3000207047704738B5F3
:101EF80090F83C30012B18D00446012580F83C505E
:101F0800022380F83D30FFF7A9FF2268D36823F049
:101F18004003D3602268D36823F48043D36084F8F5
:101F28003D50002084F83C0038BD0220FCE700004A
:101F38000368244A904212D002F5006290420ED003
:101F4800B0F1804F0BD0A2F59832904207D002F53D
:101F58008062904203D002F58062904203D123F060
:101F680070034A681343174A904212D002F5006280
:101F780090420ED0B0F1804F0BD0A2F5983290422B
:101F880007D002F58062904203D002F58062904249
:101F980003D123F44073CA68134323F080034A69CA
:101FA800134303608B68C3620B688362054B9842D6
:101FB80003D003F50063984201D10B690363012341
:101FC80043617047002C0140A8B110B5044690F851
:101FD8003D305BB1022384F83D30211D2068FFF7B6
:101FE800A7FF012384F83D30002010BD80F83C3065
:101FF800FFF76EFFEEE701207047A8B110B5044661
:1020080090F83D305BB1022384F83D30211D2068F3
:10201800FFF78EFF012384F83D30002010BD80F8C3
:102028003C30FFF763FFEEE70120704730B4036AE6
:1020380023F010030362036A4468826922F4E642CB
:102048000D6842EA052223F020038D6843EA051350
:10205800114DA84203D005F50065A84206D123F02A
:102068008003CD6843EA051323F040030A4DA842D4
:1020780003D005F50065A84207D124F440644D69F2
:1020880044EA85048D6944EA8504446082614A68AB
:102098008263036230BC7047002C014038B590F869
:1020A8003C30012B66D00D460446012380F83C30B5
:1020B800022380F83D300C2A1AD8DFE802F007190D
:1020C8001919201919193419191947000068FFF747
:1020D80001FE2268936943F00803936122689369BB
:1020E80023F0040393612268936929690B43936180
:1020F800012384F83D30002084F83C0038BD006896
:10210800FFF794FF2268936943F4006393612268A0
:10211800936923F48063936122689369296943EA88
:1021280001239361E4E70068FFF708FE2268D3699A
:1021380043F00803D3612268D36923F00403D36111
:102148002268D36929690B43D361D1E70068FFF797
:102158002DFE2268D36943F40063D3612268D369F2
:1021680023F48063D3612268D369296943EA012390
:10217800D361BDE70220C1E710B4012303FA01F4DB
:10218800036A23EA04030362036A8A40134303626F
:1021980010BC704710B5044601220068FFF7ECFF39
:1021A8002368094A934203D002F50062934203D19F
:1021B8005A6C42F400425A642268136843F00103DF
:1021C8001360002010BD00BF002C014010B4042390
:1021D80003FA01F4036A23EA04030362036A8A40E8
:1021E8001343036210BC704710B50446042200680C
:1021F800FFF7ECFF2268536C43F4004353642268F2
:10220800136843F001031360002010BD90F83C30C0
:10221800012B25D0012380F83C30CB6823F4407390
:102228008A68134323F480634A68134323F40063E2
:102238000A68134323F480530A69134323F40053B1
:102248004A69134323F480438A69134323F4004300
:10225800134302685364002380F83C3018467047E3
:102268000220704790F83C30012B22D030B4012274
:1022780080F83C20022380F83D300468636823F02E
:1022880070036360046863680D682B4363600468C7
:10229800A36823F08003A3600468A36849680B431C
:1022A800A36080F83D20002380F83C30184630BCFD
:1022B8007047022070470000034690F82420012A46
:1022C80020D0012280F824200268906810F0010FC5
:1022D80007D10D48806810F0010F02D10B488242E7
:1022E80008D09A6A42F020029A620120002283F8FC
:1022F80024207047506820F4702009680143516019
:102308000020F3E702207047002801400024014024
:10231800074AD36823F4E0631B041B0C000200F493
:10232800E060184340F0BF6040F40030D060704770
:1023380000ED00E030B4174BDB68C3F30223C3F1B0
:102348000704042C28BF04241D1D062D18D9033B9F
:102358004FF0FF3505FA04F421EA0401994005FA23
:1023680003F322EA0303194300280BDB0901C9B26E
:1023780000F1604000F5614080F8001330BC704700
:102388000023E5E700F00F000901C9B2024B195418
:10239800F4E700BF00ED00E014ED00E000F01F02DC
:1023A800400901239340024A42F82030704700BF99
:1023B80000E100E000F01F024009012393402030B3
:1023C800014A42F82030704700E100E0BFF34F8F28
:1023D8000549CA6802F4E062044B1343CB60BFF3BB
:1023E8004F8F00BFFDE700BF00ED00E00400FA05D5
:1023F8000138B0F1807F0AD2064B5860064AF021B6
:1024080082F823100020986007221A607047012084
:10241800704700BF10E000E000ED00E0042805D0A0
:10242800054A136823F0040313607047024A1368CF
:1024380043F004031360704710E000E0704708B5EC
:10244800FFF7FCFF08BD0000064B0022DA61064BCF
:102458001A6942F004021A611A6942F040021A61CC
:10246800704700BFB017002000200240064B002232
:10247800DA61064B1A6942F002021A6158611A6958
:1024880042F040021A617047B01700200020024055
:10249800264B1B7E012B46D070B50E460446234BB7
:1024A80001221A760368022B20D04CF25030FFF735
:1024B8006FF890BB4FF0FF333360A5680122E168E5
:1024C800A36803EBC123AB4228D92846FFF7CEFF08
:1024D8004CF25030FFF75CF8154A136923F00203F9
:1024E80013610246B8B905F50065E8E74CF25030CB
:1024F800FFF74EF808B1012210E00120FFF7A4FF12
:102508004CF25030FFF744F8024609490B6923F0B2
:1025180004030B6102E0356000E00122034B002157
:102528001976104670BD022210467047B017002079
:1025380000200240F0B482B000263546ABE0002C03
:1025480063D0012C00D1CE68FF2B72D88446FF2BB4
:1025580072D8AC00DCF800200F27A74022EA070257
:1025680006FA04F42243CCF800204A6812F0805F8F
:1025780000F09080654A946944F00104946192697E
:1025880002F001020192019AAC08A71C604A52F8B5
:1025980027C005F0030297000F22BA402CEA020C6C
:1025A8005C4A90424ED002F58062904200F08B80E7
:1025B80002F58062904200F0888002F580629042C5
:1025C80000F0858002F58062904200F0828002F57A
:1025D8008062904234D0062235E04F4FBC4214D07E
:1025E8000BD94E4FBC4210D007F58037BC420CD0F7
:1025F800A7F58017BC42A7D107E0A7F58017BC4212
:1026080003D007F58037BC429ED18C687CB1012C81
:1026180008D04261082697E7CE68083694E7CE6866
:102628000C3691E7026108268EE700268CE704261F
:102638008AE700F1040C8AE7A5F10804A40089E7F9
:10264800052200E00022BA4042EA0C020234304F70
:1026580047F824204A6812F4803F3CD0304C226866
:102668001A4322604A6812F4003F3AD02C4C626840
:102678001A4362604A6812F4801F38D0284CA26856
:102688001A43A2604A6812F4001F36D0244CE2684C
:102698001343E36001350F2D35D80122AA400B689A
:1026A80013409A42F6D14C68122CB8D095D8022C17
:1026B800B2D07FF644AF032CB7D0112C7FF444AFCF
:1026C800CE68043640E70122BDE70222BBE70322B9
:1026D800B9E70422B7E7124C226822EA0302226013
:1026E800C0E70F4C626822EA03026260C2E70C4C42
:1026F800A26822EA0302A260C4E7094CE26822EA5F
:102708000303E360C6E702B0F0BC70470010024064
:1027180000000140000801400000211000003110B5
:10272800000401408368194201D10020704701204C
:10273800704712B909040161704701617047C368A5
:102748005940C1607047000070B582B00446036804
:1027580013F0010F34D03E4BDB6913F0805F48D192
:102768003B4BDA6942F08052DA61DB6903F080534F
:102778000193019B0125374B1B6813F4807F3AD0E6
:10278800334B1B6A13F4407311D0626802F4407231
:102798009A420CD02E4A136A23F440702E4901261F
:1027A8000E6000260E60106213F0010F37D1284A20
:1027B800136A23F4407361680B431362002D3FD101
:1027C800236813F0020F06D0214A536823F44043CC
:1027D800A1680B435360236813F0100F35D01C4ACF
:1027E800536823F4800361690B435360002002B0EF
:1027F80070BD0025BFE7174A136843F48073136060
:1028080000F05EF80646134B1B6813F4807FB7D1BF
:1028180000F056F8801B6428F5D90320E7E700F09C
:102828004FF806460A4B1B6A13F0020FBFD100F09F
:1028380047F8801B41F288339842F3D90320D6E742
:10284800D36923F08053D361BAE70020CFE700BFF4
:1028580000100240007000404004424270470000EF
:1028680010B50446074B1868074BA3FB00308009D6
:10287800FFF7BEFD002221464FF0FF30FFF75AFD5B
:10288800002010BD00000020D34D621008B5074A93
:10289800136843F0100313600320FFF739FD00208D
:1028A800FFF7DEFFFFF7DAFF002008BD0020024037
:1028B800024A136801331360704700BFD017002025
:1028C800014B1868704700BFD017002030B583B09F
:1028D8000190FFF7F5FF0546019CB4F1FF3F00D0DA
:1028E8000134FFF7EDFF401BA042FAD303B030BD1F
:1028F8007047000030B482B00023019390F8243070
:10290800012B00F08B800246012380F824304B68AD
:10291800062B29D80568686B03EB8303053B1F2446
:102928009C4020EA04000C6804FA03F303436B6339
:102938000B68092B38D91568E86803EB43031E3B7D
:1029480007249C4020EA04008C6804FA03F303433C
:10295800EB600B68103B012B34D90020002382F870
:10296800243002B030BC70470C2B0ED80568286B99
:1029780003EB8303233B1F249C4020EA04000C68DC
:1029880004FA03F303432B63D2E70568E86A03EB11
:102998008303413B1F249C4020EA04000C6804FA8E
:1029A80003F30343EB62C3E71568286903EB4303AA
:1029B80007249C4020EA04008C6804FA03F30343CC
:1029C8002B61C6E713681648834205D0936A43F023
:1029D800200393620120C1E7986810F4000F1BD10F
:1029E800986840F4000098600B68102B01D0002014
:1029F800B4E70C4B1B680C49A1FB03139B0C03EBBE
:102A080083035900019102E0019B013B0193019B63
:102A1800002BF9D10020A1E700209FE70220A0E7C2
:102A2800002401400000002083DE1B4330B583B042
:102A38000023019303689A6812F0010F2ED19A6857
:102A480042F001029A60174B1B68174AA2FB032346
:102A58009B0C019302E0019B013B0193019B002B1E
:102A6800F9D10446FFF72CFF054623689B6813F04D
:102A7800010F11D1FFF724FF401B0228F5D9A36AE3
:102A880043F01003A362E36A43F00103E362002307
:102A980084F82430012002E0002000E0002003B088
:102AA80030BD00BF0000002083DE1B4390F82430B7
:102AB800012B6AD010B50446012380F82430FFF7B3
:102AC800B5FF024600285BD1A36A23F4407323F0C4
:102AD800010343F48073A36223682D498B4227D0F6
:102AE800A16A21F48011A162596811F4806F05D0A0
:102AF800A16A21F4405141F48051A162A16A11F404
:102B0800805F2BD0E16A21F00601E162002184F8A0
:102B180024106FF0020119602368996801F460219C
:102B2800B1F5602F1DD0996841F4801199602AE0B1
:102B3800A1F58061496811F4702FD1D0A16A41F4E0
:102B48008011A1621349496811F4806FD6D0A16A37
:102B580021F4405141F48051A162CFE70021E162A4
:102B6800D4E70B498B4204D0996841F4A0019960DD
:102B780009E0A1F58061496811F4702FD3D1F3E71A
:102B8800002384F82430104610BD022210467047F6
:102B9800002801400024014038B503689A6812F003
:102BA800010F01D1002038BD04469A6822F00102C5
:102BB8009A60FFF785FE054623689B6813F0010FAE
:102BC8000ED0FFF77DFE401B0228F5D9A36A43F01B
:102BD8001003A362E36A43F00103E3620120E2E722
:102BE8000020E0E7002800F08A8070B50446836A78
:102BF800002B36D02046FFF7CFFFA36A13F010034F
:102C080077D1002875D1A26A22F4885222F00202F4
:102C180042F00202A262626825683A498D4226D0D3
:102C2800E1690A43E66842EA4602A168B1F5807F95
:102C380027D0012922D06169012925D0696821F4AA
:102C480069410B436B6021688D682F4B2B40134300
:102C58008B60A368B3F5807F27D0012B25D0002196
:102C680026E0C36280F82430FFF742FEC2E7E1693C
:102C7800B1F5402FD5D14FF40021D2E74FF480733E
:102C8800D9E74FF48073D6E736B9A169013943EA29
:102C9800413343F40063D1E7A16A41F02001A16206
:102CA800E16A41F00101E162C8E72369013B1905C6
:102CB8002568EB6A23F470030B43EB622368996879
:102CC800124B0B409A420BD0A36A23F0120343F035
:102CD8001003A362E36A43F00103E36201200DE0FD
:102CE8000023E362A36A23F0030343F00103A36212
:102CF80004E0A36A43F01003A362012070BD012021
:102D0800704700BF003C0140FDF7E1FFFE0E1FFFCA
:102D18002DE9F84305460268136923F44053C16856
:102D28000B431361836802691343426913430168C3
:102D3800CA6822F4B05222F00C021343CB60026836
:102D4800536923F4407381690B4353610268594BFB
:102D58009A4257D0FEF79EFF00EB800000EB800000
:102D68006C68A400B0FBF4F4534FA7FB0434640967
:102D78002601FEF78FFF00EB800000EB80006C68F7
:102D8800A400B0FBF4F9FEF785FF00EB800000EB30
:102D980080006C68A400B0FBF4F4A7FB0434640959
:102DA8004FF0640808FB149424013234A7FB043460
:102DB800640904F0F0043444FEF76CFF00EB800073
:102DC80000EB80006E68B600B0FBF6F6FEF762FF17
:102DD80000EB800000EB80006B689B00B0FBF3F019
:102DE800A7FB0030400908FB10684FEA081808F1F3
:102DF8003208A7FB0837C7F343172B6827449F609F
:102E0800BDE8F883FEF756FF00EB800000EB80007A
:102E18006C68A400B0FBF4F4274FA7FB04346409E2
:102E28002601FEF747FF00EB800000EB80006C688E
:102E3800A400B0FBF4F9FEF73DFF00EB800000EBC7
:102E480080006C68A400B0FBF4F4A7FB04346409A8
:102E58004FF0640808FB149424013234A7FB0434AF
:102E6800640904F0F0043444FEF724FF00EB80000A
:102E780000EB80006E68B600B0FBF6F6FEF71AFFAE
:102E880000EB800000EB80006B689B00B0FBF3F068
:102E9800A7FB0030400908FB10684FEA081808F142
:102EA8003208A7FB0837C7F343172B6827449F60EE
:102EB800A6E700BF003801401F85EB51704758B3A3
:102EC80010B5044690F839300BB3242384F8393010
:102ED8002268D36823F40053D3602046FFF718FF15
:102EE8002268136923F4904313612268536923F01D
:102EF8002A0353612268D36843F40053D360002047
:102F0800E063202384F8393084F83A3010BD80F823
:102F18003830FFF7D3FFD8E7012070470F4B1A6806
:102F280042F001021A6059680D4A0A405A601A684C
:102F380022F0847222F480321A601A6822F4802205
:102F48001A605A6822F4FE025A604FF41F029A600F
:102F5800044B4FF000629A60704700BF00100240B7
:102F68000000FFF800ED00E02DE9F04186B040F6E2
:102F78000C0422460021314807F0CDFB22460021EF
:102F88002F4807F0C8FB2620FFF714FA2D4C4022E3
:102F98000021204607F0BFFB2B4B9A6942F0040240
:102FA8009A619A6902F004020092009ADA6942F47E
:102FB8000032DA61DB6903F400330193019B234B90
:102FC800236046F2CB636360214B1B6803B16360E7
:102FD8001C4C204B1B68A3600C2363610025E56132
:102FE800A5612046FFF76BFF042302930126049690
:102FF800022303934FF00308CDF81480164F02A95B
:103008003846FFF797FA0395049508230293CDF8FD
:1030180014800DEB03013846FFF78CFA2A46314637
:103028002620FFF787F92620FFF7B8F92268D3682A
:1030380043F02003D36006B0BDE8F081681D00208E
:10304800E42D0020301A0020001002400044004007
:10305800E806002004000020000801402DE9F041A6
:1030680086B040F60C0422460021304807F053FB96
:10307800224600212E4807F04EFB2E4C402200210C
:10308800204607F048FB2C4B9A6942F008029A61E7
:103098009A6902F008020092009ADA6942F48022E2
:1030A800DA61DB6903F480230193019B234B2360DE
:1030B80046F2CB636360224B1B6803B163601D4C0F
:1030C8004FF48053A3600C2363610025E561A5617B
:1030D8002046FFF7F4FE4FF480630293012604961E
:1030E800022303934FF00308CDF81480154F02A96B
:1030F8003846FFF71FFA039504954FF400630293CF
:10310800CDF8148002A93846FFF714FA2A4631464A
:103118002720FFF70FF92720FFF740F92268D36827
:1031280043F02003D36006B0BDE8F081F0350020FD
:1031380074250020181800200010024000480040A4
:10314800EC060020000C01402DE9F04F89B0864BB9
:103158009A6942F004029A619A6902F004020192A3
:10316800019A9A6942F008029A619A6902F0080283
:103178000292029A9A6942F010029A619B6903F0DE
:1031880010030393039B4FF0030BCDF81CB04FF0D3
:103198000008CDF81880754B05934FF0200A0DEB09
:1031A8000A0444F810AD21467148FFF7C3F94023DB
:1031B800049321466E48FFF7BDF980250495214602
:1031C8006B48FFF7B7F94FF48063049321466948C9
:1031D800FFF7B0F94FF40063049321466548FFF701
:1031E800A9F94FF48056049621466248FFF7A2F9E0
:1031F80002270797CDF814804FF00109CDF81890F1
:10320800049621465C48FFF795F90797CDF8148096
:10321800CDF81880049721465748FFF78BF9CDF869
:1032280014900797CDF81880042604962146504834
:10323800FFF780F91023049321464F48FFF77AF9E6
:10324800CDF810A021464C48FFF774F9CDF814B01A
:10325800CDF818800797CDF8109021464548FFF71C
:1032680069F9CDF8109021464348FFF763F94FF00C
:10327800080BCDF810B021463E48FFF75BF90497DC
:1032880021463C48FFF756F9102304932146394854
:10329800FFF750F9CDF810A021463648FFF74AF954
:1032A800049621463348FFF745F9CDF810B021467A
:1032B8003148FFF73FF9049621462F48FFF73AF9BE
:1032C8000597CDF81880079740230493214629488D
:1032D800FFF730F9049521462648FFF72BF94FF4FC
:1032E8008078CDF8108021462248FFF723F904950D
:1032F80021462148FFF71EF9CDF8109021461C48B9
:10330800FFF718F9049721461948FFF713F9CDF884
:10331800108021461848FFF70DF94FF40073049305
:1033280021461548FFF706F94FF4806304932146B8
:103338001148FFF7FFF84FF40053049321460C4857
:10334800FFF7F8F84FF48043049321460848FFF745
:10335800F1F84FF40043049321460548FFF7EAF8D3
:1033680009B0BDE8F08F00BF001002400000311026
:10337800000C014000100140000801402DE9F04F09
:1033880099B0754B9A6942F400629A619A6902F49D
:1033980000620192019A9A6942F400529A619B690B
:1033A80003F400530293029B6C4EDFF8B891C6F801
:1033B8000090002474604FF02008C6F808804FF48D
:1033C800FA6BC6F80CB034617461B4613046FEF72C
:1033D80014FE10231693179416A93046FEF742FFE1
:1033E80060230F9310941194082712971394149440
:1033F8004FF40073159322460FA93046FEF74EFE90
:1034080004220FA93046FEF749FE3A460FA9304676
:10341800FEF744FE4FF4006308934FF4806309936A
:103428000A94CDF82C800C940D940E940DEB0801A1
:103438003046FEF7EBFE4A4DDFF82CA1C5F800A098
:103448006C60C5F80880C5F80CB02C616C61AC6183
:103458002846FEF7D2FDCDF858808023179316A989
:103468002846FEF7FFFE049418A9052341F8543DA9
:103478002846FEF73CFD60230F9310941194129791
:10348800139414944FF40073159322460FA92846F9
:10349800FEF704FE04220FA92846FEF7FFFD3A4670
:1034A8000FA92846FEF7FAFD4FF4006308934FF47E
:1034B800806309930A94CDF82C800C940D940E9493
:1034C8000DEB08012846FEF7A1FEDAF8443023F494
:1034D8000043CAF84430D9F8443023F40043C9F80B
:1034E800443021462846FEF755FE04212846FEF7BB
:1034F80051FE39462846FEF74DFE21462846FEF77E
:1035080073FE04212846FEF76FFE39462846FEF76B
:103518006BFE21463046FEF73DFE04213046FEF79D
:1035280039FE39463046FEF735FE21463046FEF76D
:103538005BFE04213046FEF757FE39463046FEF75B
:1035480053FE2B6801221A633268136843F00103A3
:10355800136019B0BDE8F08F00100240DC1800209D
:10356800701A0020002C0140003401402DE9F0437E
:1035780087B0434EB36943F40073B361B36903F48E
:1035880000730093009B3F4C3F4B23604FF48073C4
:10359800A3600025E56065614FF44023E361656041
:1035A8004FF00509C4F810902046FFF71BFB374A77
:1035B800536843F48023536006A94FF4C02341F8AD
:1035C800043D2046FEF778FE4FF00108CDF8108044
:1035D8000E230293CDF80C8002A92046FFF78AF942
:1035E80002950227039702A92046FFF783F904975B
:1035F8000B2702970323039302A92046FFF77AF9C2
:103608000C2302930423039302A92046FFF772F9BF
:103618000723049310230293CDF80C9002A92046A7
:10362800FFF768F92268936843F4000343F4807352
:103638009360936843EA08039360736943EA080355
:103648007361736903EA08030193019B104B1D60C2
:10365800C3F804900F4A9A600F4ADA6040F6A22233
:103668001A601A6842EA08021A602A464146384631
:10367800FEF760FE3846FEF791FE07B0BDE8F0831E
:1036880000100240A419002000240140000001405D
:10369800080002404C24014008000020F0B585B025
:1036A800284B9A6942F480629A619B6903F48063AB
:1036B8000093009B244C254B23604FF48073A36038
:1036C8000023E36063614FF46022E26163600526D2
:1036D80026612046FFF786FA012303930F22019201
:1036E800029301A92046FFF705F90D23019302254E
:1036F800029501A92046FFF7FDF803950A230193D7
:103708000327029701A92046FFF7F4F8019504233F
:1037180002930DEB03012046FFF7ECF80723039310
:103728000197029601A92046FFF7E4F823689A68F2
:1037380042F480729A609A6842F001029A6005B079
:10374800F0BD00BF001002405818002000280140BA
:1037580008B598B1124B1B6803B108BD104B012284
:103768001A60104B08221A600F4B19680F4A116033
:103778004FF416521A60FFF7F7FBEEE7084B1B6889
:10378800002BEAD0064B00221A60064B4FF48052F9
:103798001A60064B1A68044B1A60FFF7E5FBDCE772
:1037A800A006002004000020E80600209C06002057
:1037B80010B51C4B1C682046FCF78CFE0022002329
:1037C800FDF764F958B16442132CCCBF00240124DE
:1037D80034B30024144B1C70144B1C700AE0132CD7
:1037E800CCBF00240124F3E7114B1C706420FFF7C1
:1037F8006DF80134072CF7DD002220210D48FEF773
:1038080098FF02210B48FEF78DFF0028F9D102210D
:103818000848FEF787FF0028F9D0FEF7D7FDF6E73E
:1038280010BD00BFA41C0020340700203C07002066
:1038380030070020000801402DE9F04F89B06824C6
:10384800224600214A4806F066FF224600214948E0
:1038580006F061FF4FF0000B83E0474E4FEA0B186C
:1038680006EB08074FF0000946F808903B1D079340
:10387800C7F80490342404FB0BF43D4BE21804927F
:103888003E4D6888FDF758FA0590A888FDF754FA68
:103898000690E888FDF750FA08F1080A56443849B6
:1038A800FDF756FB029036490698FDF751FB01904B
:1038B80033490598FDF74CFB0090079B3246394683
:1038C800049803F0E7F928894742FDF735FA0646D8
:1038D8003846FDF735FA32460146049E304603F075
:1038E8006BF9304603F09AF9264E06EB080746F8BE
:1038F800089007F10408C7F804901E4B1C44688917
:10390800FDF71AFA8146A889FDF716FA0490E889A6
:10391800FDF712FA56441A49FDF71AFB02901849A6
:103928000498FDF715FB019015494846FDF710FB73
:103938000090434632463946204603F0ABF9288AC0
:103948004642FDF7F9F905463046FDF7F9F92A46EA
:103958000146204603F030F9204603F05FF90BF1E9
:10396800010BBBF1010F7FF778AF09B0BDE8F08F0D
:10397800D81B0020B81A0020A8060020441C0020EC
:103988000000C842C80600202DE9F04700265FE085
:10399800342505FB06F5304F2F44304C6088FDF781
:1039A800CBF98246A088FDF7C7F98046E088FDF785
:1039B800C3F92B49FDF7CCFA814629494046FDF762
:1039C800C7FA804626495046FDF7C2FA4B4642469A
:1039D8000146384603F0AEF82089C0F10009FDF72A
:1039E800ABF980464846FDF7ABF9424601463846F2
:1039F80003F0E2F81B4B1D446089FDF79DF98146F1
:103A0800A089FDF799F90746E089FDF795F914496A
:103A1800FDF79EFA804612493846FDF799FA07469F
:103A28000F494846FDF794FA43463A460146284668
:103A380003F080F8208A4742FDF77EF904463846AD
:103A4800FDF77EF922460146284603F0B5F801360F
:103A5800012E9DDDBDE8F087D81B0020441C002006
:103A68000000C842B81A002010B592B04821684634
:103A780002F0E6FE482805D1BDF8002040F2D64302
:103A88009A420CD0482422460849684606F038FE77
:103A98002146684602F01AFE054806F033FA482225
:103AA8006946044806F02CFE12B010BD18CE000876
:103AB8009CCE0008441C002038B502217248FEF74D
:103AC80031FE002864D0714A936805339360126808
:103AD800002A40F088806D4A52687AB3653B40F20C
:103AE8006A72934230D9694B9B68A3F5FA6340F632
:103AF800B732934231D9654B9B68A3F59C53093B78
:103B080041F28632934231D9604B9B68A3F51C532E
:103B1800113B41F28632934231D95C4B9B68A3F545
:103B28006A53193B5A4A93425DD80421002002F097
:103B3800B3F80421012002F0AFF854E0534B0122FE
:103B48005A6000229A604EE00121002002F0A4F899
:103B58000121084602F0A0F8C5E70221002002F082
:103B68009BF80221012002F097F8C4E70321002006
:103B780002F092F80321012002F08EF8C4E7042134
:103B8800002002F089F80421012002F085F8C4E73A
:103B98003E4B1C6814BB5B6803B33C4B9B68A3F5A6
:103BA8001C53103B41F2873293421DD9374B9B6817
:103BB800A3F59C53083B41F28732934232D9334BE9
:103BC8009B68643B40F26B72934254D900210846CB
:103BD80002F062F80021012002F05EF82B4B00226F
:103BE8009A605A601A6038BD00202A4B18702A4B18
:103BF8001870082102F050F80821012002F04CF852
:103C0800254607E005F00302244B1A706420FEF7EE
:103C18005DFE0135132DF5DDFFF79AFD204806F00E
:103C280071F9C3E700201B4B18701B4B1870082153
:103C380002F032F80821012002F02EF807E004F023
:103C48000202164B1A706420FEF740FE0134132C52
:103C5800F5DD144BB3F91D201A861348C282B3F957
:103C68006720A3F87A200283482102F02FFD0C4830
:103C780006F048F9A3E7084B00221A700B4806F033
:103C880041F9FFF795FDA1E700080140341B00202A
:103C9800064C0100340700203C07002030070020B4
:103CA80060CE00080C3E0020441C002084CE000892
:103CB80070B596B002250C95012610961023119325
:103CC8001395002414944FF4601315930CA8FDF772
:103CD800F9FC0F230793089509944FF480630A931E
:103CE8000B94294607A8FDF713FF01954FF44043AD
:103CF800039301A8FEF728FDFDF7C6FF0D4BA3FBB4
:103D080000308009FEF774FB0420FEF787FB22468B
:103D180031464FF0FF30FEF70DFB074AD36843F0FA
:103D28008073D360054B5C601A6832431A6016B022
:103D380070BD00BFD34D6210F0ED00E0001000E050
:103D48002DE9F04F9BB0FEF7A1FD774CA36943F036
:103D58000103A361A36903F001030B930B9B0320E9
:103D6800FEF7D6FA002211466FF00B00FEF7E2FAD2
:103D7800002211466FF00A00FEF7DCFA0022114615
:103D88006FF00900FEF7D6FA002211466FF0040022
:103D9800FEF7D0FA002211466FF00300FEF7CAFAC8
:103DA800002211466FF00100FEF7C4FA002201213B
:103DB8004FF0FF30FEF7BEFA5C480125049500225B
:103DC8005B4BCDE9022356A3D3E90023CDE90023B9
:103DD8000022584B0146243802F0DEFF564B18608B
:103DE800FFF766FF636923F001036361FFF7ACF92E
:103DF800FFF7C4FAFFF7BAFBFFF750FC782200215F
:103E08004E4806F088FC2A4620214D48FEF791FCD2
:103E18004C48FEF74BFE4C48FEF748FEFFF7A4F867
:103E2800FFF71CF901F092FFFFF71EFEFFF704FDF4
:103E380001F09EFC454B5B8A1BB9444B40F2DC52B7
:103E48005A82424B5B8A40F2DC52934228BF1346A7
:103E58003A4A93610824002C56DA00243C4B1C7023
:103E6800012204213B48FEF764FC3B4806F04AF86F
:103E780002F0E2F9394805F05FFE394805F05CFECA
:103E8800384B188AFCF758FF0890374B01221A70F4
:103E980002212B48FEF746FC344B186058609C60A2
:103EA800002838D0324806F02DF8FDF7EDFE314CE9
:103EB800C4F8840002F052FAC4E90001FEF700FDDC
:103EC800206441F288360027C4E90E67D4E90089E6
:103ED80018EB060249EB0703C4E9022305306064C6
:103EE800254DD5E90067C820FEF7F0FCD5E9002389
:103EF800921B02EB82026267204B1A6100F01CFEE3
:103F08000023099300F0A1BD114B1C706420FEF73B
:103F1800DDFC013C9FE71A4805F0F4FFC5E700BF48
:103F28003333333333A36440001002408048002009
:103F38000068804000805640401C00203C01002062
:103F480000080140A419002058180020441C002033
:103F580030070020000C0140B4CE0008585D002056
:103F6800F44A0020181A00203C070020341B0020C7
:103F7800C0CE000868470020280700201C01002048
:103F8800E0CE000801F06EFFC1B2A74803F0A8FE1A
:103F980001F086FF0028F5DCA34803F0FFFDA34BE2
:103FA8001B68002B40F0C48002F0D8F9A04CC4E98B
:103FB8000001FEF785FC20649D4BD3E90001D3E99D
:103FC8000223904271EB0303E2DB994BC3E904013E
:103FD8001A6C9A64D96F4FF47A7202FB01F1D3F824
:103FE8008420944880FB0240D217C2EBA01291FBB8
:103FF800F2F29A6701F028F98F4C206802F032FF3C
:1040080010AB0EAA0CA9206802F0FEFEDDE90C0137
:10401800FCF764FD894C2060DDE90E01FCF75EFDCC
:104028006060DDE91001FCF759FDA0600023844AB7
:104038001360844A1360844B1C68002C00F0818054
:1040480001F05AFE814C2068FCF744FA70A3D3E9CA
:104058000023FCF7A9FA06460F46794B1868FCF7C7
:1040680039FA6DA3D3E90023FCF79EFA02460B4602
:1040780030463946FCF7E2F8FCF730FD054620608B
:10408800734C2068FCF726FA61A3D3E90023FCF7F8
:104098008BFA06460F466B4B1868FCF71BFA5EA3B3
:1040A800D3E90023FCF780FA02460B46304639462E
:1040B800FCF7C4F8FCF712FD2060664B1B78002B58
:1040C80000F08382FCF706FA0022634BFCF76CFAD7
:1040D80082468B462846FCF7FDF900225E4BFCF72A
:1040E80063FA06460F4602460B4650465946FCF709
:1040F800A3F8804689460022584BFCF7E5FC0028C7
:1041080040F03E8246A3D3E9002340464946FCF7E7
:10411800BDFC002840F0538240464946FCF7DEFCCF
:1041280030E24F4801F084FAC1B24E4803F0D8FD9E
:104138004B4801F02FFA0028F3DC4A4803F02EFD23
:1041480032E701F03DFC484B1B6813BB474BD3F8E3
:1041580036301BB9454BD3F88030D3B1444B9B8ADA
:1041680013B1444B01221A60434805F0CBFE3F4B84
:10417800002283F8362083F8372083F8382083F824
:10418800392083F8802083F8812083F8822083F8FF
:1041980083203A4B5B69FBB10321002001F07CFDD1
:1041A800344B1B681BB3324B9B8A03B32F4BD3F89A
:1041B8004630B3B12D4BD3F8903093B12F4B5B6998
:1041C800002B40F0D780294BD3F82630ABB9274BCA
:1041D8001E6F9EB1012611E00021084601F05CFD2A
:1041E800DEE7274B1B7823B9254B00221A7025469A
:1041F800D7E0244805F086FEF6E70126224A12ABEE
:1042080092E8030083E8030025464DE0AFF3008001
:10421800CDCCCCCCCCCCEC3F9A9999999999B93F13
:104228000000000000408FC0585D0020A00600205C
:1042380068470020D34D6210401C0020201B00203E
:10424800B81C00209C1C0020341B0020A01C00204F
:10425800A41C0020A40600200000E03F00408F407E
:10426800E42D0020F44A0020F40600200C3E002033
:10427800441C00201407002000CF00083C01002047
:104288003C07002020CF0008E4CD0008A84B0022FE
:1042980043F82520A74B1B780BB1002E3DD00421F5
:1042A800284601F003FD0135012D3DDCA24A4A23D1
:1042B80003FB0523D3F82630002BE7D01AAB03EB1A
:1042C800850353F8201C13464A2202FB0532B2F933
:1042D8001D30B2F92E209B1A03FB01F3974A82FB8B
:1042E8000312A2EBE372964B5B8B9A4203DC5B42B0
:1042F8009342B8BF13468E4A42F825300C2128460F
:1043080001F0D4FC8B4B1B78002BCCD18D4805F0E9
:10431800F9FD884B01221A70C5E78B4805F0F2FDBC
:10432800844B00221A70BAE70023884A1360884A2F
:104338001360884B1B6823B1814B9B8A002B7FF449
:104348007FAE854B1B68099A934202D1794B1B7843
:1043580023B9FFF771FA804B1B6809937E4B1B68E2
:10436800022B00F0D980032B00F0DF80012B7FF4B3
:1043780067AE26E06E4A002353601360734A1360E9
:104388006C4B1B78002B3FF432AF744805F0BAFD34
:10439800684B00221A702AE70821284601F086FC9B
:1043A8000135012DC5DC644A4A2303FB0523D3F8F4
:1043B8002630002BF0D00421284601F077FCEFE7E7
:1043C8000134012C3FF73CAE3425654B05FB043521
:1043D800284602F04FFB0028F2D0DFF8A081270121
:1043E80008EB07065F4B53F82400FCF7A9FC706044
:1043F80004EBC4039A005C4B13441869FCF7A0FC57
:1044080048F80700284602F041FBB068FCF7B2FE06
:10441800474B43F82400D3E77B4251E0534B03EB6F
:1044280005183846FCF78CFCC8F80400A24652E090
:104438003F4B53F8252002444D4B9B689A4203DCBE
:104448005B429342B8BF1346394A42F825300135DA
:10445800012D3FF7F5AD05EBC5039A00424B134418
:104468009869DFF808812E0108EB0607FCF768FC5D
:10447800014658F80600FCF7AFFB48F80600FB6851
:104488000133FB602B4B1B7823B9002048F806004A
:104498000123FB603426374B06FB0536304602F015
:1044A800E9FA0028D3D0324B53F825703846FCF788
:1044B80011F800220023FCF7E9FA0028ACD13B46AA
:1044C8002B4A12699A42A9DD284B03EB05130022F7
:1044D8005A604FF0010ADFF894904FEA051809EB8B
:1044E800080759F808B0F868FCF72AFC014658464E
:1044F800FCF72EFD49F808000023FB60304602F067
:10450800C5FAB868FCF736FEBAF1000F90D0084B30
:10451800002243F825209AE7254699E7164B53F8D9
:104528002420034B43F824200134012CF6DD87E5D1
:104538000C0700203C0700200C3E0020565555551E
:10454800441C002038CF000860CF00081801002064
:10455800301B002014070020F406002088CF000834
:10456800D81B0020F40100205C480020C806002069
:1045780014020020B81A0020E0010020A80600203C
:104588004FF47A70924B186032463B465046594673
:10459800FBF754FE04460D4600228E4BFCF794FAB6
:1045A80078B985A3D3E9002320462946FCF76EFA9B
:1045B80000284CD120462946FCF790FA03E08648AB
:1045C800E0E74FF47A70824B5860844B1B781BB934
:1045D8007F4B00225A601A607D4B5968804A1160EF
:1045E8001B685B427F4A13607F4B1A68511C196035
:1045F8007E4BA3FB02135B09642101FB132343B326
:10460800FFF75AFA7A4B5B6913B97A4B1B7813B1E7
:10461800794B00221A60794B1C6879492046FCF7CF
:1046280081FD002800F08880764B1D682846FBF73E
:1046380051FF00220023FCF729FA002879D1132D15
:104648007ADC714805F05EFCFFF7B2F88CE062484E
:10465800B9E70898FBF750FF59A3D3E90023FBF704
:10466800A3FF06460F46694C208AFCF765FBFBF75B
:1046780043FF55A3D3E90023FBF796FF02460B46F9
:1046880030463946FBF7DAFDFCF750FA0746089042
:104698005F49FCF79FFA5F49FCF7A6FB5E49FCF708
:1046A8009BFA0546228A92B2514B9A60DF601861E4
:1046B8005A4A926812F4805F0CBF012200225A61A4
:1046C800574EB6F91D10002000F048FFB6F96730C4
:1046D8005B4219B2012000F041FF3D4EB6F90410CB
:1046E800022000F03BFFB6F90010032000F036FF6F
:1046F800A18909B2042000F031FF4A493F4B1868EC
:10470800FCF772FBFCF736FD01B2052000F026FF2E
:104718003846FCF72FFD01B2062000F01FFF28469F
:10472800FCF728FD01B2072000F018FF00F01CFF7D
:1047380066E76D42132D84DD3B492046FCF7F2FC09
:1047480058B12F492046FCF70BFD30B1374B0522F5
:104758001A70374B06221A7006E0364B1B68002B7E
:1047680022DD013B334A1360194B1C682046FBF7D6
:10477800B1FE00220023FCF789F900285CD1322C15
:104788005DDC134B5C682046FBF7A4FE0022002387
:10479800FCF77CF9002840F07C81322C4FDC164A6B
:1047A8001368013313604DE00023204A1370204A38
:1047B8001370D9E7AFF300800000000000408FC0FD
:1047C800AE47E17A14AEEF3F7B14AE47E17A843FFF
:1047D8000C07002000408F4018FCFFFF3C0700201A
:1047E8004807002044070020F80600201F85EB51E9
:1047F8003C010020FC060020301B0020380100206E
:10480800CCCC0642A41C0020A0CF0008181A002017
:1048180000E0CE44083748BE33330F420008014059
:104828000C3E00200000C84200000C423007002067
:1048380034070020F00600206442322CA1DDAC4B86
:1048480000221A60AA4B1B68AA4A93420CD9AA4AAA
:1048580012784AB9A84A03211170A84A0121117097
:10486800A74A4FF47A711160A64A93420CD9A24A1A
:1048780012784AB9A04A02211170A04A0121117088
:104888009F4A4FF47A7111609F4A934200F2068161
:104898009E4B1B68002B2EDD013B9C4A13609C49F4
:1048A80081FB0321DA17C2EBE1124FF4C87101FB57
:1048B8001232002A00F0FB80944B1B68B3F5FA6FA4
:1048C80009DC8D4A032111708C4A012111708C4A30
:1048D8004FF47A711160B3F57A7F09DC864A0221B8
:1048E8001170864A01211170854A4FF47A7111605E
:1048F800002B40F3EC8001F031FD864CC4E9000147
:10490800FDF7DEFF2064D4E90067D4E90823B6EB9D
:10491800020A67EB030BD046D946C4E90689256D20
:10492800411BE164D4E904ABBAEB02026BEB03036D
:10493800C4E90A23A36C5D1B6565B6EB0A0667EB41
:104948000B0735463E46CDE90656C4E90C56C01A53
:10495800A065B1B940464946FCF708FA6E49FCF72C
:10496800F7FAFCF707FCE06428463946FCF7FEF93D
:10497800FBF7C2FD0022694BFBF740FFFCF7AEF8DE
:10498800A065DFF890A1DAF86C00FBF7B5FD54A339
:10499800D3E90023FBF708FEFCF7C8F8FBF7ACFDEA
:1049A80004460D4640464946FCF7E0F9FBF7A4FDEE
:1049B80000225A4BFBF722FF4BA3D3E90023FBF756
:1049C800F3FD02460B4620462946FBF737FCFCF769
:1049D800ADF8CAF86C00DAF87000FBF78DFD40A35B
:1049E800D3E90023FBF7E0FDFCF7A0F8FBF784FD13
:1049F80004460D46DDE90601FCF7B8F9FBF77CFD36
:104A08000022464BFBF7FAFE37A3D3E90023FBF756
:104A1800CBFD02460B4620462946FBF70FFCFCF768
:104A280085F8CAF87000DAE90245DAE90E012218B9
:104A380045EB0103CAE90223394A41F22C03D35852
:104A48001BB9384A136801331360324BD3E9007835
:104A5800C3E908781A6C1A65D3E90212B94272EBF5
:104A68000803BFF6A9AA7C1A68EB0205294ED6E905
:104A78001823101943EB0501C6E91801B36E013379
:104A8800B36617F57A7048F10001C6E90201FFF72D
:104A980093BA6442322C3FF7D2AE80E6144B002220
:104AA8001A60214805F02EFAFEF782FEF0E603EBC5
:104AB80083031E4A82FB0312DB17C3EBA2121C49B5
:104AC80012A805F029FF12A805F01CFAF4E60F4B0E
:104AD80000221A60174805F015FAFEF769FE0AE782
:104AE800AE47E17A14AEEF3F7B14AE47E17A843FDC
:104AF800301B0020803801003007002034070020D8
:104B0800F0060020C05701000077010008070020C8
:104B18001F85EB516847002000007A4400408F4011
:104B2800585D002018010020BCCF0008D34D62104A
:104B3800DCCF0008F0CF0008F0B5C3B072B6324D34
:104B480000236B612B68314E86F860306B6886F8FD
:104B580061302F4B586FFCF7F3F8FBF7CDFC0022C0
:104B68002C4BFBF721FD24A3D3E90023FBF71CFD05
:104B780023A3D3E90023FBF717FDFBF7D7FFFCF7C7
:104B8800F9FA02463060AB68286900FB03F3224F4C
:104B980087FB0314DB17C3EB6423F360EC6804FBA7
:104BA80000F487FB0417E117C1EB6721B16000919E
:104BB8001A4902A805F0B0FE02A805F0A3F91848A2
:104BC8000660184BC360184B4360184B8360184C41
:104BD8002660184BE360184B6360184BA36005F020
:104BE80023FD204605F020FD01236B6162B643B02A
:104BF800F0BD00BFAFF300803F7EFA80DEDF913F5B
:104C0800CE3BBB219B1823401C0100204C040020F4
:104C18006847002000001040D34D621008D00008FB
:104C2800581D0020DC1C0020401D0020001D002015
:104C3800481D00201C1D0020141D0020C81C002039
:104C48002DE9F04182B05E4B5D6872B65D4B9B68A2
:104C580003F0E003DB43C3F3421300935A4B9B6812
:104C680003F4E053DB43C3F38223019362B6574B4B
:104C780002225A60564AD2F8F040009EF0B2610013
:104C88002144CB00134418759DF804105975D2F8C7
:104C9800F01001314F4880FB0130CB17C3EBA00364
:104CA80003EB830358000B1AC2F8F030D2F8F01067
:104CB800D2F8F43099422ED04549D1F8F03003EBC0
:104CC8004303DA000A44444BDA60444B1B68B3F5EB
:104CD8007A7F31DB424B1A6801321A60414B1F68F8
:104CE800002F00F08780404BA3FB02131B0B3F49AA
:104CF80009680131B3FBF1F001FB1033002B79D1C6
:104D0800B2FBF7F307FB1322002A78D110213848A9
:104D1800FDF715FD73E01046D2F8F42001322D4955
:104D280081FB0231D317C3EBA10303EB83035900C3
:104D3800531AC0F8F430BFE70133284A13600B4612
:104D480061000A19D50058198688D3F8F82032442A
:104D580002EBD2725210C3F8F820C688D3F8FC20B0
:104D6800324402EBD2725210C3F8FC205D5BD3F8D8
:104D780000212A4402EBD2725210C3F80021458860
:104D8800D3F804212A4402EBD2725210C3F804214A
:104D98004089D3F80821024402EBD2725210C3F8BA
:104DA80008210C44E2001A441189D3F80C210A4462
:104DB80002EBD2725210C3F80C2102B0BDE8F081A8
:104DC800001000E0000C014000100140000002400B
:104DD8000800002067666666080002404007002059
:104DE80038070020300700205917B7D134070020B2
:104DF8000008014000221021AC48FDF79AFCAC4B9A
:104E08001A6801321A601B6813F0010F40F0028122
:104E1800A849D1E900787A1C48F10003C1E90023C8
:104E2800A54B1B681E2B07D8A44B1B7823B1A44B9A
:104E38005B69002B40F0F780A24A536C23F40043CF
:104E48005364A14A04EB4401CB0013445889D2F8B7
:104E58000831C01AFBF73EFB00220023FBF716FEC1
:104E6800002840F0E680984A04EB4401CB00134444
:104E78005B89D2F808219B1A944AD2699A4280F237
:104E8800E280924B9B6E052B03DD904A936E053BA7
:104E980093668E4B9A6E8E4B1B6803FB02F39B1234
:104EA800874A1268B2F1FF3F00F0D880844A5269FD
:104EB800002A40F01D8100221146134603F57A733B
:104EC80040F2C670834200F32D810A2BB8BF0A2333
:104ED8007C48436301F57A7340F2C6718B4200F354
:104EE80024810A2BB8BF0A2376498B6302F57A72AC
:104EF80040F2C6739A4200F31B810A2AB8BF0A22FD
:104F0800704BDA636C4B1B681E2B07D86B4B1B78F6
:104F180023B16B4B5B69002B40F00D816D4A536CDC
:104F280023F400435364684A04EB4401CB00134460
:104F38001889D2F80C31C01AFBF7CCFA00220023EA
:104F4800FBF7A4FD002840F0FC805F4A04EB440412
:104F5800E30013441B89D2F80C219B1A5B4AD269DF
:104F68009A4280F2F880594B9B6E052B03DD574A15
:104F7800936E053B9366554B9A6E574B1B6803FB24
:104F880002F39B124E4A1268B2F1FF3F00F0EE8026
:104F98004B4A5269002A40F01181002211461346FB
:104FA80003F57A7340F2C670834200F321810A2B1D
:104FB800B8BF0A234748436301F57A7340F2C671C4
:104FC8008B4200F318810A2BB8BF0A2341498B632F
:104FD80002F57A7240F2C6739A4200F30F810A2AE8
:104FE800B8BF0A223B4BDA633C4B5B689D4203D94E
:104FF80003F1004305F100455D1B394BDD67394B73
:105008001B6813F0020F3FF4D8AE2D4A93690133A1
:105018009361D2E62749D1E900787A1C48F1000368
:10502800C1E90023FCE6274A536C43F40043536468
:1050380007E7254AD2F8083104EB4400C1000A44C6
:1050480052899B1A18E7214B9B6EB3F5806FBFF608
:1050580020AF1E4A936E013393661AE7224A925D87
:105068000232224880FB021000EB40004100501A37
:10507800052853D8DFE800F003070B0F13165A4230
:10508800194603461AE719465B42002216E71A46F4
:105098005B42002112E759421A4600230EE75942A3
:1050A80000220BE75A42002108E700BF0008014030
:1050B8001807002028070020180100203C070020BE
:1050C8001C01002000340140080000203C010020A1
:1050D80044070020002C014048070020001000E091
:1050E80068470020000002403CD00008ABAAAA2A6A
:1050F80072B6444A1178444A11704449097851708B
:105108004349097891705B42536062B6414804F0A4
:1051180041FF414A136851689268CFE60022114660
:105128001346CBE640F2C673D2E640F2C673DBE61E
:1051380040F2C672E4E6394A536C43F400435364C0
:10514800F1E6374AD2F80C3104EB4404E1000A4492
:1051580012899B1A02E7334B9B6EB3F5806FBFF63B
:105168000AAF304A936E0133936604E7019A2E49D9
:105178008A5C02322D4880FB021000EB400041009F
:10518800501A052830D8DFE800F003070B0F131674
:105198005A421946034603E719465B420022FFE6D6
:1051A8001A465B420021FBE659421A460023F7E6FD
:1051B80059420022F4E65A420021F1E672B61C4A2E
:1051C80011781C4A11701C49097851701B490978DB
:1051D80091705B42536062B6194804F0DBFE194ACD
:1051E800136851689268DBE6002211461346D7E639
:1051F80040F2C673DEE640F2C673E7E640F2C672D6
:10520800F0E600BF57480020401D002061470020FD
:1052180060470020581D0020001D0020002C014080
:10522800080000203C0100203CD00008ABAAAA2AB4
:1052380058480020141D002056480020F047002040
:10524800481D0020C81C00202DE9F843BA4ED6F8A6
:10525800F0300933B94A82FB0312DC17C4EBA2040D
:1052680004EB840462009C1A63002344DD00354487
:10527800B34B29686A68AF68E86819605A609F602C
:10528800D86029696A6919615A61AE4F3868FBF7B5
:1052980033F9A3A3D3E90023FBF786F980468946AF
:1052A800A889FBF749FDA849FBF79EFDFBF724F900
:1052B8009DA3D3E90023FBF777F902460B46404646
:1052C8004946FAF7BBFFFBF731FC38609F4B586043
:1052D8006889D6F80831C01AFBF7FCF800220023C9
:1052E800FBF7D4FB00285AD1934A04EB4401CB00C6
:1052F80013445889D2F80831C01AFBF721FDFBF78F
:10530800FBF88BA3D3E90023FBF74EF9FBF70EFC60
:105318008E4D2862FBF7F0F800228D4BFBF744F91D
:10532800FBF7DCFBA863A86AFBF7E6F87CA3D3E9E4
:105338000023FBF739F906460F46286AFBF7DCF825
:1053480079A3D3E90023FBF72FF902460B46304631
:105358003946FAF773FFFBF7E9FBA8627648630062
:105368002344DA000244137DDBB27A49C95C023176
:10537800794B83FB015303EB43035D004B1B91887F
:10538800D0F8F850491BD588D0F8FC00281A052B0E
:1053980000F29980DFE803F0930A0A0B0B95D6F820
:1053A80008016B89C01AFBF7CBFCA8E70846624DD9
:1053B80062002244D3002B449988D5F8F820891A32
:1053C800624AD162D988D5F8FC60891B11635063A1
:1053D8001889D5F80C31C01AFBF77CF80022002395
:1053E800FBF754FB002870D1534A04EB4401CB006F
:1053F80013441889D2F80C31C01AFBF7A1FCFBF74B
:105408007BF84BA3D3E90023FBF7CEF8FBF78EFB21
:105418004E4DE864FBF770F800224D4BFBF7C4F8DB
:10542800FBF75CFB6866A869FBF78AFCFBF764F886
:105438000022474BFBF7E2F93DA3D3E90023FBF732
:10544800DDF9FBF74BFBE861686DFBF755F834A312
:10545800D3E90023FBF7A8F806460F46E86CFBF7EC
:105468004BF831A3D3E90023FBF79EF802460B461D
:1054780030463946FAF7E2FEFBF758FB68652E4AD4
:1054880063002344D8001618737DDBB23149C95C28
:105498000231314B83FB015303EB43035D004B1B8C
:1054A800115AD2F80001081A7188D2F80421891A11
:1054B800052B30D8DFE803F02B151516162D081A22
:1054C80075E7401A73E7002071E72B46D5F80C0101
:1054D80004EB4401CA0013441B89C01AFBF730FCD3
:1054E8008DE70146144A63001D19E800155AD2F8E1
:1054F80000012D1A154885651C44E30013445B8898
:10550800D2F804219B1AC3650166BDE8F883411AE5
:10551800E8E7091AE6E70021E4E700BFAFF30080F7
:10552800AE47E17A14AEEF3F7B14AE47E17A843F91
:105538007B14AE47E17A943F0800002067666666F0
:10554800181A00203801002017B9CE3C3C01002071
:10555800000059403CD00008ABAAAA2A014B23F806
:1055680010107047FC3D002070470000034B1A687C
:10557800D36843F08003D36001207047301A0020BD
:10558800034B1A68D36843F08003D3600120704747
:1055980018180020D0F80038D0F80408181A00D4D9
:1055A800704700F58060FBE738B504460D46FFF705
:1055B800F1FF40F2FD33984210DCD4F8003824F8AB
:1055C8001350D4F8003801335A42C3F30903C2F325
:1055D800090258BF5342C4F8003838BDD4F8083817
:1055E8000133C4F80838F8E770B506460D460F4889
:1055F800FFF7D0FF2844013040F2FD33984201DC28
:1056080000240DE0094AD2F808380133C2F80838F6
:105618004FF0FF3008E0315D0448FFF7C5FF013463
:10562800AC42F8DBFFF7A2FF70BD00BF681D002089
:105638000246D0F80018D0F80438994211D0D0F8B2
:10564800043830F8130080B2D2F8043801335942D4
:10565800C3F30903C1F3090158BF4B42C2F8043828
:10566800704700207047000010B50446036813F027
:10567800800F04D1236813F0200F10D110BD0B4800
:10568800FFF788FF20B9E36823F0C003E360F1E780
:105698000648FFF7CDFFC0F308006060EAE76168DD
:1056A800C1F308010248FFF77FFFE7E7681D002004
:1056B800E42D002010B50446036813F0800F04D1D0
:1056C800236813F0200F10D110BD0B48FFF762FFBD
:1056D80020B9E36823F0C003E360F1E70648FFF769
:1056E800A7FFC0F308006060EAE76168C1F308013A
:1056F8000248FFF759FFE7E7F0350020742500203E
:1057080008B518B10348FFF745FF08BD0248FFF781
:1057180041FFFAE774250020E42D002008B518B1F0
:105728000348FFF737FF08BD0248FFF733FFFAE7E2
:10573800F0350020681D002008B518B10348FFF7B0
:1057480033FF08BD0248FFF72FFFFAE7F0350020C6
:10575800681D002008B518B10348FFF769FF08BDA8
:105768000248FFF765FFFAE774250020E42D0020C2
:1057780038B50E4B00251D605D609D600C4C942271
:105788002946204604F0C7FF0A4BB3F916202286A3
:10579800B3F91830A4F87A30012384F8883084F8F3
:1057A800895084F88A5084F88B5038BDA03E002078
:1057B8000C3E0020441C002008B510B1FFF7E0FEA5
:1057C80008BDFFF7D3FEFBE72DE9F04180460F4601
:1057D80015461E46FFF7A2FF2844013040F2FD336C
:1057E800984215DC002403E04046FFF7A5FF01348A
:1057F800AC4207DA395D002EF6D0002CF4D141F422
:105808008071F1E74046FFF7D7FF0120BDE8F0813E
:105818004FF0FF30FAE700002DE9F0438FB004465F
:1058280046690A2E00D90A266379AA2B01D0552B7E
:1058380027D1B4F90120B4F903309A4240D10125A7
:10584800002D56D0D4F84280B4F90190A8EB09078E
:105858003846FAF73FFE00220023FBF717F9002825
:105868007BD1C82FD4BF00270127002F41D04B463A
:1058780042464D4901A805F04FF801A804F042FB43
:1058880037E0D4F83E20494901A805F045F801A8B9
:1058980004F038FB464804F035FB002508E0625D5B
:1058A800444901A805F038F801A804F02BFB01359C
:1058B8006369AB42F3DC404804F024FB0025BFE7F2
:1058C8003E4901A805F028F801A804F01BFB0025B3
:1058D80008E0625D374901A805F01EF801A804F048
:1058E80011FB01356369AB42F3DC334804F00AFB72
:1058F8000025002D48D00A2E36D13246214604F123
:105908001C0004F0FDFEB4F90130C4F84230B4F9CB
:1059180024502846FAF7DEFD00220023FBF7B6F8EC
:1059280038BBB5F5FA6F28DCB4F91D502846FAF7EC
:10593800D1FD00220023FBF7A9F870BB42F22833FF
:105948009D421ADC0023052284F8462084F847305B
:1059580084F8483084F8493016E0A9EB0807C82FC6
:10596800D4BF0027012780E70022E2612262A284D7
:10597800C3E76D42B5F5FA6FD6DDD4F84630002B93
:1059880002DD013BC4F8463000230122227663760B
:10599800A376E3760FB0BDE8F0836D4242F2283378
:1059A8009D42EADCCEE700BF90D0000844D0000852
:1059B80050D000086CD0000828DD000874D000081A
:1059C8002DE9F84FFCF77CFF8346002486E0AC4BBA
:1059D8004A2202FB04325369C2F83A300023137595
:1059E80053759375D37533607360B360F360336137
:1059F800137653769376D376A14A4A2303FB04237E
:105A08005B69132B06D8F7544A2303FB04235A690E
:105A180001325A619A4A4A2303FB04235B69092B22
:105A280004DD4A2303FB04239B691BB3013D002DBE
:105A38002DDD2046FFF78EFE074610F4807FDBD071
:105A48008F4A4A2303FB04235B69052BBFDD4A23E6
:105A580003FB04239B69002BB9D14046FFF7DCFE0A
:105A6800874A4A2303FB04239B69002BAFD009F123
:105A78000109ACE74046FFF7CFFE814A4A2303FB02
:105A880004239B69002BD1D009F10109CEE7B9F1B4
:105A9800000F00F0C8807A4A4A2303FB0423D3F896
:105AA8002A306BB3764A4A2303FB042300210A20D9
:105AB80083F82A0083F82B1083F82C1083F82D1014
:105AC80093F82130552B1FD06D4A4A2303FB04233A
